:02000000A92B2A
:10000800FF00030E83018316D6000A08D7008A0171
:1000180070088312A0000B1C38288B1D3828061E78
:100028001C2801308316B6000030B7008312081769
:10003800061A23288316B601B70183120813861EF1
:10004800312801308316A2000030A30083128101F9
:1000580093308316A0000330A1008312861A372834
:100068008316A201A3010B108B1C42280B1E4228E9
:100078008312061C4128081342288B100B1D662882
:1000880083128101803083162506F00080307002CB
:10009800031D502800302402031C56280130A402F6
:1000A800031CA50380302106F00080307002031D78
:1000B8005F2800302002031C65280130A002031CC1
:1000C800A1030B1183122008F000831657088A0039
:0A00D800560E8300FF0E7F0E090094
:1000E200103083120313FD00FD0B75280000080079
:1000F200083083120313FC002330FD00FD0B7F2820
:06010200FC0B7F28080041
:0401080000000800EB
:10010C0083120313F801F9011030FC00710DF80D86
:10011C00F90D7408F8027508031C750FF902031821
:10012C009E287408F80775080318750FF907031053
:0A013C00F00DF10DFC0B8C280800FB
:1001460083160313E81BAA2883120811AC2883120E
:1001560008158316681BB22883128811B4288312E7
:1001660088158316E81ABA2883120812BC28831247
:1001760008168316681AC22883128812C4288312A6
:10018600881683165218CA2883120814CC2883129C
:1001960008108814842088108316E819D52883123D
:1001A6000811D7288312081583166819DD288312CB
:1001B6008811DF28831288158316E818E52883122C
:1001C6000812E7288312081683166818ED2883128A
:1001D6008812EF288312881683165218F528831280
:1001E6000814F728831208108814842088108316B0
:0C01F600521CFF2879200029712008000D
:1002020083160313E6010530660203180F296608F8
:100212006507840020308000E60A04296608650725
:1002220084008001E60366086507E7000A30F400EF
:10023200F5016308F0006408F10086207808F000F8
:100242007908F1003030F0078316670884007008DF
:1002520080000A30F400F5016308F0006408F10040
:10026200862070088316E3007108E40000307106EE
:10027200031D3D2900307006031D40294229E60373
:040282001429080033
:100286008316031352106308E800A3208316521442
:0202960008005E
:0E029800073083120313FD00FD0B50290800F0
:1002A600831603135A08831203178D0083168C13C3
:0A02B6000C1483120C08F00008007D
:1002C0007229803083160313DA008529C030DA00E2
:1002D00085299430DA008529D430DA0085298030E8
:1002E000DA008529831603135A08013A0319612994
:1002F0005A08023A031966295A08033A0319692968
:100300005A08043A03196C296F295B03F0005A0854
:10031000F0077008DA007008E800A3208316521076
:10032000DD015D085C078400000803199F295D0852
:100330005C0784000008E3004321DD0A9129521480
:020340000800B3
:0E0342008316031351088A0050088200080039
:10035000831203139F01C0309F0483162609F00007
:1003600070089F051F179F175A08F000F00D7010B6
:10037000F00D7010F00D7010700883129F041F14A0
:100380004C211F151F1DC6290000C2291F101E0861
:10039000F100F00183161E08F0040030F10408009B
:1003A00083160313DF01E0015A08E1005B08E20055
:1003B00080305B06F00080307002031DE1290030C0
:1003C0005A020318EF290130DF000030E0005A081C
:1003D000003CE1005B08031C013EE201E20261080F
:1003E000E3006208E4005C08E50001210630DD005E
:1003F0000030DE005E08003C031D002A5D08003C62
:1004000003181B2A5D085C07F20001305D02F00052
:100410000030031C013E5E02F10070085C0784009E
:100420000008F00072088400700880000130DD02CE
:10043000031CDE03FA295C088400203080005F087A
:1004400060040319392ADD01DE015D085C078400C0
:100450000008203A031D302ADD0A0319DE0A252A86
:100460000130DD02031CDE035D085C0784002D30D3
:040470008000080000
:1004740083120313EC01ED0100305A06031D442AD4
:1004840000305906031D4A2A01308316E800A320D0
:1004940001308316DA000330DB002D30DC006021EC
:1004A4000230DA000630DB005330DC0060218312B6
:0C04B40008130130D9000030DA00080005
:1004C000023083160313DA00532170080313DB0094
:1004D000DC0100302C06031D6F2A00302B06031DA3
:1004E000752A01308316E800A3205B088316DA0022
:1004F00083125C088316DB00BF30DC00D0210130A2
:10050000DA000330DB002130DC0060210230DA0049
:100510000330DB00BF30DC00602101308312AB0010
:080520000030AC0008130800D4
:10052800013083160313DA000130DB004230DC00AF
:08053800602183120813080082
:1005400083120313D901DA0100306D06031DAA2AB4
:1005500000306C06031DB02A01308316E800A3208A
:1005600001308316DA000230DB005D30DC006021F0
:0E057000831208170130EC000030ED00080087
:10057E008312031388170330FB008A30FC005530BA
:10058E00FD00FD0BC82AFC0BC82AFB0BC82A000075
:10059E00000088130330FB008A30FC005530FD004C
:1005AE00FD0BD72AFC0BD72AFB0BD72A0000000025
:0405BE000813080016
:1005C2008316031388100810881208128811081164
:1005D20083128810081008118811081288127920D5
:1005E20079207920081688168814842088107920AA
:1005F2008814842088107920881484208810792017
:100602008812881484208810792088148420881005
:100612000812081588148420881079200811881679
:1006220088148420881088128814842088107920E5
:1006320088148420881088168814842088107920D1
:1006420088128814842088100815881508168816C0
:0E065200881484208810792083165214080022
:10066000FF3083160313D300FF30D400FF30D500D2
:10067000FF3083129F01C0309F0483162609F000CB
:0E06800070089F051F179F1783121F14080094
:10068E00A1218A110A128000840AD00A0319D10A04
:08069E00F003031D472B0800C7
:1006A60083160313DA01A8217008CE007108CF0063
:1006B60080307106F20080307202031D642B173001
:1006C6007002031C762B8030F00080304F067002DB
:1006D600031D6F2B4E08423C031C762B0130CE02C5
:1006E600031CCF03852B80304F06F000803070024C
:1006F600031D7F2B43304E02031C852B0230CE0296
:06070600031CCF030800F4
:10070C00831603178C1C8C2B0000862B03135808A4
:10071C00831203178D0083160313590883120317D2
:10072C008C0083168C130C150B08F0008B135530B2
:10073C008D00AA308D008C14F01BA62B8B13A72BCD
:06074C008B170C110800E0
:100752006225831603138801831288018316061407
:10076200061686168B178B150B160117831281013D
:100772008B16831681120112811101158114011445
:100782000230D80083125B088316D9008623E12247
:100792000C30E800A32001308316DA000530DB00BC
:1007A2003A30DC0060210530FB009130FC00CF3094
:1007B200FD00FD0BDA2BFC0BDA2BFB0BDA2B000016
:1007C20000000130E800A32001308316DA00033074
:1007D200DB00A730DC0060210230DA000330DB00EE
:1007E200B830DC0060210730FB001730FC006A30B3
:1007F200FD00FD0BFA2BFC0BFA2BFB0BFA2B000076
:100802000130E800A32030235323003083125A061C
:10081200031D0D2C00305906031D1C2C8030F000E6
:10082200803083164F067002031D192C4E081C3CA3
:1008320003181C2CA022003083163706031D232C1C
:1008420001303606031D272CA022EC2C0030831623
:100852003506031D2E2C01303406031D312C3A229D
:10086200003083162306031D382C01302206031D97
:10087200582C83168030F000803021067002031D50
:10088200442C2008003C0318572C60228030F000D2
:100892008030831621067002031D512C2008003C73
:1008A200031C562C0130E800A3203A2CEC2C8312B6
:1008B200AB01AC018030F000803083164F0670022D
:1008C200031D652C4E081E3C031C772C8030F00063
:1008D20080304F067002031D702C4E081C3C03181A
:1008E200772CA0228316B401B501882C80304F06E4
:1008F200F00080307002031D802C32304E02031C47
:10090200882C3A2201308316B4000030B5008030C2
:100912004F06F00080307002031D912C1D304E02F4
:100922000318B42C942200306F06031D9A2C003059
:100932006E06031DAD2CE1308316A4001130A50014
:100942008312DB0A0319DC0A02308316D8008312F1
:100952005B088316D9008623013083120313EE004D
:100962000030EF00B72C8312EE01EF0180308316C6
:100972004F06F00080307002031DC12C1D304E0264
:100982000318EC2C8030F000803025067002031D25
:10099200CC2C2408003C0318EC2C5323BF228030BB
:1009A20083164F06F00080307002031DDA2C1D30D2
:1009B2004E020318E82C8030F000803025067002C9
:1009C200031DE52C2408003C0318E82CEB2C013015
:0A09D200E800A320B72C052CED2C43
:100AC400213084004F3083120313F000F330831677
:100AD400D0000430D1004723A03084001F3083129B
:100AE4000313F00042308316D0000530D1004723B1
:020AF4000800F8
:1009E6006E3462345F34703461346E346E34653420
:0409F6003A3400345B
:0409FA000034003491
:1009FE00463469346E3420346134723472346F3458
:0A0A0E00733461346734653400343A
:100A1800573465346C3463346F346D346534003462
:100A2800533479347334743465346D346534203414
:100A380065346E342034703461346E346E34653409
:020A4800003478
:0C0A4A00673461347A346F346E34003449
:040A56000034003434
:040A5A000034003430
:100A5E004134723472346F347334613467346534B4
:0E0A6E002034673461347A346F346E340034CF
:040A7C00003400340E
:040A8000003400340A
:040A84009334033470
:040A88000034003402
:040A8C00E13411340C
:020A90000F3421
:100A920053344D3441345234543420344734413485
:0A0AA2005234443445344E3400341D
:040AAC0000340034DE
:040AB00000340034DA
:0E0AB400423479342034323441343534003445
:02400E004A2F37
:00000001FF
